{
  "contractName": "Inbox",
  "abi": [
    {
      "constant": true,
      "inputs": [],
      "name": "sum",
      "outputs": [
        {
          "name": "",
          "type": "uint256"
        }
      ],
      "payable": false,
      "stateMutability": "view",
      "type": "function"
    },
    {
      "constant": true,
      "inputs": [],
      "name": "message",
      "outputs": [
        {
          "name": "",
          "type": "string"
        }
      ],
      "payable": false,
      "stateMutability": "view",
      "type": "function"
    },
    {
      "inputs": [
        {
          "name": "initialMesage",
          "type": "string"
        }
      ],
      "payable": false,
      "stateMutability": "nonpayable",
      "type": "constructor"
    },
    {
      "constant": false,
      "inputs": [
        {
          "name": "newMessage",
          "type": "string"
        }
      ],
      "name": "setMessage",
      "outputs": [],
      "payable": false,
      "stateMutability": "nonpayable",
      "type": "function"
    }
  ],
  "bytecode": "0x608060405234801561001057600080fd5b506040516104c53803806104c58339810180604052602081101561003357600080fd5b81019080805164010000000081111561004b57600080fd5b8281019050602081018481111561006157600080fd5b815185600182028301116401000000008211171561007e57600080fd5b5050929190505050806000908051906020019061009c9291906100a3565b5050610148565b828054600181600116156101000203166002900490600052602060002090601f016020900481019282601f106100e457805160ff1916838001178555610112565b82800160010185558215610112579182015b828111156101115782518255916020019190600101906100f6565b5b50905061011f9190610123565b5090565b61014591905b80821115610141576000816000905550600101610129565b5090565b90565b61036e806101576000396000f3fe608060405260043610610057576000357c0100000000000000000000000000000000000000000000000000000000900463ffffffff168063368b87721461005c578063853255cc14610124578063e21f37ce1461014f575b600080fd5b34801561006857600080fd5b506101226004803603602081101561007f57600080fd5b810190808035906020019064010000000081111561009c57600080fd5b8201836020820111156100ae57600080fd5b803590602001918460018302840111640100000000831117156100d057600080fd5b91908080601f016020809104026020016040519081016040528093929190818152602001838380828437600081840152601f19601f8201169050808301925050505050505091929192905050506101df565b005b34801561013057600080fd5b506101396101f9565b6040518082815260200191505060405180910390f35b34801561015b57600080fd5b506101646101ff565b6040518080602001828103825283818151815260200191508051906020019080838360005b838110156101a4578082015181840152602081019050610189565b50505050905090810190601f1680156101d15780820380516001836020036101000a031916815260200191505b509250505060405180910390f35b80600090805190602001906101f592919061029d565b5050565b60015481565b60008054600181600116156101000203166002900480601f0160208091040260200160405190810160405280929190818152602001828054600181600116156101000203166002900480156102955780601f1061026a57610100808354040283529160200191610295565b820191906000526020600020905b81548152906001019060200180831161027857829003601f168201915b505050505081565b828054600181600116156101000203166002900490600052602060002090601f016020900481019282601f106102de57805160ff191683800117855561030c565b8280016001018555821561030c579182015b8281111561030b5782518255916020019190600101906102f0565b5b509050610319919061031d565b5090565b61033f91905b8082111561033b576000816000905550600101610323565b5090565b9056fea165627a7a723058205de817545f908b417eaa05e4730e13bff0ea9ee229df3ae86e1230867283b3ac0029",
  "source": "pragma solidity ^0.5.0;\r\n contract Inbox {\r\n     string public message;\r\n     uint public sum;\r\n     constructor(string memory initialMesage) public {\r\n         message=initialMesage;\r\n         \r\n     }\r\n     function setMessage(string memory newMessage) public {\r\n         message=newMessage;\r\n     }\r\n     \r\n   \r\n }\r\n ",
  "sourcePath": "C:/Users/JINESH/Documents/GitHub/Ethereum_And_Solidity/contracts/Inbox.sol",
  "compiler": {
    "name": "solc",
    "version": "0.5.0+commit.1d4f565a.Emscripten.clang"
  },
  "schemaVersion": "3.0.2",
  "updatedAt": "2019-03-01T17:29:08.829Z",
  "devdoc": {
    "methods": {}
  },
  "userdoc": {
    "methods": {}
  }
}